{"contracts/AfterchainWill.sol":{"AfterchainWill":{"abi":[{"inputs":[{"internalType":"address","name":"_owner","type":"address"},{"internalType":"uint256","name":"_heartbeatIntervalDays","type":"uint256"},{"components":[{"internalType":"address","name":"wallet","type":"address"},{"internalType":"uint256","name":"percentage","type":"uint256"},{"internalType":"string","name":"label","type":"string"}],"internalType":"struct AfterchainWill.Beneficiary[]","name":"_beneficiaries","type":"tuple[]"}],"stateMutability":"nonpayable","type":"constructor"},{"inputs":[{"internalType":"address","name":"token","type":"address"}],"name":"SafeERC20FailedOperation","type":"error"},{"anonymous":false,"inputs":[{"indexed":true,"internalType":"address","name":"beneficiary","type":"address"},{"indexed":false,"internalType":"uint256","name":"amount","type":"uint256"}],"name":"EthDistributed","type":"event"},{"anonymous":false,"inputs":[{"indexed":true,"internalType":"address","name":"owner","type":"address"},{"indexed":false,"internalType":"uint256","name":"timestamp","type":"uint256"}],"name":"HeartbeatSent","type":"event"},{"anonymous":false,"inputs":[{"indexed":true,"internalType":"address","name":"token","type":"address"},{"indexed":true,"internalType":"address","name":"beneficiary","type":"address"},{"indexed":false,"internalType":"uint256","name":"amount","type":"uint256"}],"name":"TokenDistributed","type":"event"},{"anonymous":false,"inputs":[{"indexed":true,"internalType":"address","name":"executor","type":"address"},{"indexed":false,"internalType":"uint256","name":"timestamp","type":"uint256"}],"name":"WillExecuted","type":"event"},{"anonymous":false,"inputs":[{"indexed":true,"internalType":"address","name":"sender","type":"address"},{"indexed":false,"internalType":"uint256","name":"amount","type":"uint256"}],"name":"WillFunded","type":"event"},{"anonymous":false,"inputs":[{"indexed":true,"internalType":"address","name":"owner","type":"address"},{"indexed":false,"internalType":"uint256","name":"beneficiaryCount","type":"uint256"}],"name":"WillUpdated","type":"event"},{"inputs":[{"internalType":"uint256","name":"","type":"uint256"}],"name":"beneficiaries","outputs":[{"internalType":"address","name":"wallet","type":"address"},{"internalType":"uint256","name":"percentage","type":"uint256"},{"internalType":"string","name":"label","type":"string"}],"stateMutability":"view","type":"function"},{"inputs":[],"name":"executeWill","outputs":[],"stateMutability":"nonpayable","type":"function"},{"inputs":[{"internalType":"address","name":"tokenAddress","type":"address"}],"name":"executeWillTokens","outputs":[],"stateMutability":"nonpayable","type":"function"},{"inputs":[],"name":"executed","outputs":[{"internalType":"bool","name":"","type":"bool"}],"stateMutability":"view","type":"function"},{"inputs":[],"name":"getBeneficiaries","outputs":[{"components":[{"internalType":"address","name":"wallet","type":"address"},{"internalType":"uint256","name":"percentage","type":"uint256"},{"internalType":"string","name":"label","type":"string"}],"internalType":"struct AfterchainWill.Beneficiary[]","name":"","type":"tuple[]"}],"stateMutability":"view","type":"function"},{"inputs":[],"name":"getWillStatus","outputs":[{"internalType":"bool","name":"_executed","type":"bool"},{"internalType":"uint256","name":"_lastHeartbeat","type":"uint256"},{"internalType":"uint256","name":"_daysRemaining","type":"uint256"}],"stateMutability":"view","type":"function"},{"inputs":[],"name":"heartbeat","outputs":[],"stateMutability":"nonpayable","type":"function"},{"inputs":[],"name":"heartbeatInterval","outputs":[{"internalType":"uint256","name":"","type":"uint256"}],"stateMutability":"view","type":"function"},{"inputs":[],"name":"lastHeartbeat","outputs":[{"internalType":"uint256","name":"","type":"uint256"}],"stateMutability":"view","type":"function"},{"inputs":[],"name":"owner","outputs":[{"internalType":"address","name":"","type":"address"}],"stateMutability":"view","type":"function"},{"inputs":[{"components":[{"internalType":"address","name":"wallet","type":"address"},{"internalType":"uint256","name":"percentage","type":"uint256"},{"internalType":"string","name":"label","type":"string"}],"internalType":"struct AfterchainWill.Beneficiary[]","name":"_beneficiaries","type":"tuple[]"}],"name":"updateWill","outputs":[],"stateMutability":"nonpayable","type":"function"},{"stateMutability":"payable","type":"receive"}],"evm":{"bytecode":{"linkReferences":{},"object":"60806040523480156200001157600080fd5b5060405162001cb938038062001cb9833981016040819052620000349162000420565b6001600160a01b038316620000905760405162461bcd60e51b815260206004820152601a60248201527f4166746572636861696e57696c6c3a207a65726f206f776e657200000000000060448201526064015b60405180910390fd5b6200009b8162000177565b600080546001600160a01b0319166001600160a01b038516179055620000c58262015180620005ff565b6002554260015560005b81518110156200016d576004828281518110620000f057620000f06200061f565b602090810291909101810151825460018082018555600094855293839020825160039092020180546001600160a01b0319166001600160a01b03909216919091178155918101519282019290925560408201516002820190620001549082620006c4565b5050508080620001649062000790565b915050620000cf565b50505050620007c2565b6000815111620001ca5760405162461bcd60e51b815260206004820181905260248201527f4166746572636861696e57696c6c3a206e6f2062656e65666963696172696573604482015260640162000087565b6000805b8251811015620003245760006001600160a01b0316838281518110620001f857620001f86200061f565b6020026020010151600001516001600160a01b0316036200026d5760405162461bcd60e51b815260206004820152602860248201527f4166746572636861696e57696c6c3a207a65726f2062656e6566696369617279604482015267206164647265737360c01b606482015260840162000087565b60008382815181106200028457620002846200061f565b60200260200101516020015111620002df5760405162461bcd60e51b815260206004820152601f60248201527f4166746572636861696e57696c6c3a207a65726f2070657263656e7461676500604482015260640162000087565b828181518110620002f457620002f46200061f565b602002602001015160200151826200030d9190620007ac565b9150806200031b8162000790565b915050620001ce565b50806064146200038b5760405162461bcd60e51b815260206004820152602b60248201527f4166746572636861696e57696c6c3a2070657263656e7461676573206d75737460448201526a02073756d20746f203130360ac1b606482015260840162000087565b5050565b80516001600160a01b0381168114620003a757600080fd5b919050565b634e487b7160e01b600052604160045260246000fd5b604051606081016001600160401b0381118282101715620003e757620003e7620003ac565b60405290565b604051601f8201601f191681016001600160401b0381118282101715620004185762000418620003ac565b604052919050565b6000806000606084860312156200043657600080fd5b62000441846200038f565b6020850151604086015191945092506001600160401b03808211156200046657600080fd5b818601915086601f8301126200047b57600080fd5b815181811115620004905762000490620003ac565b620004a160208260051b01620003ed565b8082825260208201915060208360051b860101925089831115620004c457600080fd5b602085015b83811015620005d957805185811115620004e257600080fd5b8601601f196060828e0382011215620004fa57600080fd5b62000504620003c2565b62000512602084016200038f565b8152604083015160208201526060830151888111156200053157600080fd5b8084019350508d603f8401126200054757600080fd5b6020830151888111156200055f576200055f620003ac565b62000572602084601f84011601620003ed565b92508083528e60408286010111156200058a57600080fd5b60005b81811015620005b05760408186010151602082860101526020810190506200058d565b5060006020828501015250816040820152808652505050602083019250602081019050620004c9565b5080955050505050509250925092565b634e487b7160e01b600052601160045260246000fd5b8082028115828204841417620006195762000619620005e9565b92915050565b634e487b7160e01b600052603260045260246000fd5b600181811c908216806200064a57607f821691505b6020821081036200066b57634e487b7160e01b600052602260045260246000fd5b50919050565b601f821115620006bf57600081815260208120601f850160051c810160208610156200069a5750805b601f850160051c820191505b81811015620006bb57828155600101620006a6565b5050505b505050565b81516001600160401b03811115620006e057620006e0620003ac565b620006f881620006f1845462000635565b8462000671565b602080601f831160018114620007305760008415620007175750858301515b600019600386901b1c1916600185901b178555620006bb565b600085815260208120601f198616915b82811015620007615788860151825594840194600190910190840162000740565b5085821015620007805787850151600019600388901b60f8161c191681555b5050505050600190811b01905550565b600060018201620007a557620007a5620005e9565b5060010190565b80820180821115620006195762000619620005e9565b6114e780620007d26000396000f3fe6080604052600436106100a05760003560e01c80638da5cb5b116100645780638da5cb5b146101815780638fc4c35e146101b9578063913b722c146101eb578063a495aaff1461020d578063a5b836351461022d578063efeb5e581461024257600080fd5b806331a38c89146100e15780633defb96214610110578063561a4fac1461012757806369c1a7121461014b5780636caf72101461016157600080fd5b366100dc5760405134815233907f568fdc64b832566e65a2900ea275af0f00fb33a4d713867b85522a5fd64792309060200160405180910390a2005b600080fd5b3480156100ed57600080fd5b506003546100fb9060ff1681565b60405190151581526020015b60405180910390f35b34801561011c57600080fd5b50610125610271565b005b34801561013357600080fd5b5061013d60025481565b604051908152602001610107565b34801561015757600080fd5b5061013d60015481565b34801561016d57600080fd5b5061012561017c366004610f4d565b610337565b34801561018d57600080fd5b506000546101a1906001600160a01b031681565b6040516001600160a01b039091168152602001610107565b3480156101c557600080fd5b506101ce6105c4565b604080519315158452602084019290925290820152606001610107565b3480156101f757600080fd5b50610200610625565b6040516101079190610fb5565b34801561021957600080fd5b506101256102283660046110ad565b610736565b34801561023957600080fd5b506101256108a4565b34801561024e57600080fd5b5061026261025d366004611218565b61098d565b60405161010793929190611231565b6000546001600160a01b031633146102cc5760405162461bcd60e51b815260206004820152601960248201527820b33a32b931b430b4b72bb4b6361d103737ba1037bbb732b960391b60448201526064015b60405180910390fd5b60035460ff16156102ef5760405162461bcd60e51b81526004016102c390611261565b4260018190556000546040519182526001600160a01b0316907f878229cab17522b0aa9fe67ef166ba37857b7fdb46cd8748179a9d9a7373727f9060200160405180910390a2565b60035460ff166103975760405162461bcd60e51b815260206004820152602560248201527f4166746572636861696e57696c6c3a2077696c6c206e6f74207965742065786560448201526418dd5d195960da1b60648201526084016102c3565b6001600160a01b0381166103f85760405162461bcd60e51b815260206004820152602260248201527f4166746572636861696e57696c6c3a207a65726f20746f6b656e206164647265604482015261737360f01b60648201526084016102c3565b6040516370a0823160e01b815230600482015281906000906001600160a01b038316906370a0823190602401602060405180830381865afa158015610441573d6000803e3d6000fd5b505050506040513d601f19601f8201168201806040525081019061046591906112a6565b9050600081116104b75760405162461bcd60e51b815260206004820181905260248201527f4166746572636861696e57696c6c3a206e6f20746f6b656e2062616c616e636560448201526064016102c3565b60005b6004548110156105be5760006064600483815481106104db576104db6112bf565b906000526020600020906003020160010154846104f891906112eb565b6105029190611308565b905080156105ab5761054460048381548110610520576105206112bf565b60009182526020909120600390910201546001600160a01b03868116911683610a56565b60048281548110610557576105576112bf565b6000918252602091829020600390910201546040518381526001600160a01b0391821692918816917f67226bacccef969dab310a9e55dc1cf821363658e433fd330344f5cc00c79ac8910160405180910390a35b50806105b68161132a565b9150506104ba565b50505050565b60035460015460ff90911690600082156105e057506000909192565b60006002546001546105f29190611343565b9050804210610604576000915061061f565b620151806106124283611356565b61061c9190611308565b91505b50909192565b60606004805480602002602001604051908101604052809291908181526020016000905b8282101561072d576000848152602090819020604080516060810182526003860290920180546001600160a01b031683526001810154938301939093526002830180549293929184019161069c90611369565b80601f01602080910402602001604051908101604052809291908181526020018280546106c890611369565b80156107155780601f106106ea57610100808354040283529160200191610715565b820191906000526020600020905b8154815290600101906020018083116106f857829003601f168201915b50505050508152505081526020019060010190610649565b50505050905090565b6000546001600160a01b0316331461078c5760405162461bcd60e51b815260206004820152601960248201527820b33a32b931b430b4b72bb4b6361d103737ba1037bbb732b960391b60448201526064016102c3565b60035460ff16156107af5760405162461bcd60e51b81526004016102c390611261565b6107b881610a90565b6107c460046000610e91565b60005b815181101561085c5760048282815181106107e4576107e46112bf565b602090810291909101810151825460018082018555600094855293839020825160039092020180546001600160a01b0319166001600160a01b0390921691909117815591810151928201929092556040820151600282019061084690826113f1565b50505080806108549061132a565b9150506107c7565b5060005481516040519081526001600160a01b03909116907f1eabcecd53c7b5a3968414fccf52314d0190df64d163161f430456fa5d9c8ced9060200160405180910390a250565b60035460ff16156108c75760405162461bcd60e51b81526004016102c390611261565b6002546001546108d79190611343565b42116109315760405162461bcd60e51b8152602060048201526024808201527f4166746572636861696e57696c6c3a206f776e6572206973207374696c6c20616044820152636c69766560e01b60648201526084016102c3565b6003805460ff1916600117905560405133907fac8ae454ab5edd07d536a5c6584f39f829039f54889168e45278e74b7d062a3f906109729042815260200190565b60405180910390a247801561098a5761098a81610c91565b50565b6004818154811061099d57600080fd5b60009182526020909120600390910201805460018201546002830180546001600160a01b0390931694509092916109d390611369565b80601f01602080910402602001604051908101604052809291908181526020018280546109ff90611369565b8015610a4c5780601f10610a2157610100808354040283529160200191610a4c565b820191906000526020600020905b815481529060010190602001808311610a2f57829003601f168201915b5050505050905083565b610a638383836001610e2b565b610a8b57604051635274afe760e01b81526001600160a01b03841660048201526024016102c3565b505050565b6000815111610ae15760405162461bcd60e51b815260206004820181905260248201527f4166746572636861696e57696c6c3a206e6f2062656e6566696369617269657360448201526064016102c3565b6000805b8251811015610c285760006001600160a01b0316838281518110610b0b57610b0b6112bf565b6020026020010151600001516001600160a01b031603610b7e5760405162461bcd60e51b815260206004820152602860248201527f4166746572636861696e57696c6c3a207a65726f2062656e6566696369617279604482015267206164647265737360c01b60648201526084016102c3565b6000838281518110610b9257610b926112bf565b60200260200101516020015111610beb5760405162461bcd60e51b815260206004820152601f60248201527f4166746572636861696e57696c6c3a207a65726f2070657263656e746167650060448201526064016102c3565b828181518110610bfd57610bfd6112bf565b60200260200101516020015182610c149190611343565b915080610c208161132a565b915050610ae5565b5080606414610c8d5760405162461bcd60e51b815260206004820152602b60248201527f4166746572636861696e57696c6c3a2070657263656e7461676573206d75737460448201526a02073756d20746f203130360ac1b60648201526084016102c3565b5050565b60005b600454811015610c8d576000606460048381548110610cb557610cb56112bf565b90600052602060002090600302016001015484610cd291906112eb565b610cdc9190611308565b90508015610e1857600060048381548110610cf957610cf96112bf565b600091825260208220600390910201546040516001600160a01b039091169184919081818185875af1925050503d8060008114610d52576040519150601f19603f3d011682016040523d82523d6000602084013e610d57565b606091505b5050905080610db45760405162461bcd60e51b815260206004820152602360248201527f4166746572636861696e57696c6c3a20455448207472616e73666572206661696044820152621b195960ea1b60648201526084016102c3565b60048381548110610dc757610dc76112bf565b6000918252602091829020600390910201546040518481526001600160a01b03909116917fab1912cdcff35bad007331fb1e883ba5d97fa13d9b605600e7e24913c6d6dbb4910160405180910390a2505b5080610e238161132a565b915050610c94565b60405163a9059cbb60e01b60008181526001600160a01b038616600452602485905291602083604481808b5af192506001600051148316610e85578383151615610e78573d6000823e3d81fd5b6000873b113d1516831692505b60405250949350505050565b508054600082556003029060005260206000209081019061098a91905b80821115610ee35780546001600160a01b0319168155600060018201819055610eda6002830182610ee7565b50600301610eae565b5090565b508054610ef390611369565b6000825580601f10610f03575050565b601f01602090049060005260206000209081019061098a91905b80821115610ee35760008155600101610f1d565b80356001600160a01b0381168114610f4857600080fd5b919050565b600060208284031215610f5f57600080fd5b610f6882610f31565b9392505050565b6000815180845260005b81811015610f9557602081850181015186830182015201610f79565b506000602082860101526020601f19601f83011685010191505092915050565b60006020808301818452808551808352604092508286019150828160051b87010184880160005b8381101561102f57888303603f19018552815180516001600160a01b031684528781015188850152860151606087850181905261101b81860183610f6f565b968901969450505090860190600101610fdc565b509098975050505050505050565b634e487b7160e01b600052604160045260246000fd5b6040516060810167ffffffffffffffff811182821017156110765761107661103d565b60405290565b604051601f8201601f1916810167ffffffffffffffff811182821017156110a5576110a561103d565b604052919050565b600060208083850312156110c057600080fd5b823567ffffffffffffffff808211156110d857600080fd5b818501915085601f8301126110ec57600080fd5b8135818111156110fe576110fe61103d565b8060051b61110d85820161107c565b918252838101850191858101908984111561112757600080fd5b86860192505b8383101561120b578235858111156111455760008081fd5b86016060601f19828d03810182131561115e5760008081fd5b611166611053565b6111718b8501610f31565b81526040848101358c8301529284013592898411156111905760008081fd5b83850194508e603f8601126111a757600093508384fd5b8b8501359350898411156111bd576111bd61103d565b6111cd8c84601f8701160161107c565b92508383528e818587010111156111e45760008081fd5b838186018d85013760009383018c019390935291820152835250918601919086019061112d565b9998505050505050505050565b60006020828403121561122a57600080fd5b5035919050565b60018060a01b03841681528260208201526060604082015260006112586060830184610f6f565b95945050505050565b60208082526025908201527f4166746572636861696e57696c6c3a2077696c6c20616c72656164792065786560408201526418dd5d195960da1b606082015260800190565b6000602082840312156112b857600080fd5b5051919050565b634e487b7160e01b600052603260045260246000fd5b634e487b7160e01b600052601160045260246000fd5b8082028115828204841417611302576113026112d5565b92915050565b60008261132557634e487b7160e01b600052601260045260246000fd5b500490565b60006001820161133c5761133c6112d5565b5060010190565b80820180821115611302576113026112d5565b81810381811115611302576113026112d5565b600181811c9082168061137d57607f821691505b60208210810361139d57634e487b7160e01b600052602260045260246000fd5b50919050565b601f821115610a8b57600081815260208120601f850160051c810160208610156113ca5750805b601f850160051c820191505b818110156113e9578281556001016113d6565b505050505050565b815167ffffffffffffffff81111561140b5761140b61103d565b61141f816114198454611369565b846113a3565b602080601f831160018114611454576000841561143c5750858301515b600019600386901b1c1916600185901b1785556113e9565b600085815260208120601f198616915b8281101561148357888601518255948401946001909101908401611464565b50858210156114a15787850151600019600388901b60f8161c191681555b5050505050600190811b0190555056fea26469706673582212201deccc17e20306c4e425c9daa42f4da31e1fe2616368812471e676a53024a36364736f6c63430008140033","opcodes":"PUSH1 0x80 PUSH1 0x40 MSTORE CALLVALUE DUP1 ISZERO PUSH3 0x11 JUMPI PUSH1 0x0 DUP1 REVERT JUMPDEST POP PUSH1 0x40 MLOAD PUSH3 0x1CB9 CODESIZE SUB DUP1 PUSH3 0x1CB9 DUP4 CODECOPY DUP2 ADD PUSH1 0x40 DUP2 SWAP1 MSTORE PUSH3 0x34 SWAP2 PUSH3 0x420 JUMP JUMPDEST PUSH1 0x1 PUSH1 0x1 PUSH1 0xA0 SHL SUB DUP4 AND PUSH3 0x90 JUMPI PUSH1 0x40 MLOAD PUSH3 0x461BCD PUSH1 0xE5 SHL DUP2 MSTORE PUSH1 0x20 PUSH1 0x4 DUP3 ADD MSTORE PUSH1 0x1A PUSH1 0x24 DUP3 ADD MSTORE PUSH32 0x4166746572636861696E57696C6C3A207A65726F206F776E6572000000000000 PUSH1 0x44 DUP3 ADD MSTORE PUSH1 0x64 ADD JUMPDEST PUSH1 0x40 MLOAD DUP1 SWAP2 SUB SWAP1 REVERT JUMPDEST PUSH3 0x9B DUP2 PUSH3 0x177 JUMP JUMPDEST PUSH1 0x0 DUP1 SLOAD PUSH1 0x1 PUSH1 0x1 PUSH1 0xA0 SHL SUB NOT AND PUSH1 0x1 PUSH1 0x1 PUSH1 0xA0 SHL SUB DUP6 AND OR SWAP1 SSTORE PUSH3 0xC5 DUP3 PUSH3 0x15180 PUSH3 0x5FF JUMP JUMPDEST PUSH1 0x2 SSTORE TIMESTAMP PUSH1 0x1 SSTORE PUSH1 0x0 JUMPDEST DUP2 MLOAD DUP2 LT ISZERO PUSH3 0x16D JUMPI PUSH1 0x4 DUP3 DUP3 DUP2 MLOAD DUP2 LT PUSH3 0xF0 JUMPI PUSH3 0xF0 PUSH3 0x61F JUMP JUMPDEST PUSH1 0x20 SWAP1 DUP2 MUL SWAP2 SWAP1 SWAP2 ADD DUP2 ADD MLOAD DUP3 SLOAD PUSH1 0x1 DUP1 DUP3 ADD DUP6 SSTORE PUSH1 0x0 SWAP5 DUP6 MSTORE SWAP4 DUP4 SWAP1 KECCAK256 DUP3 MLOAD PUSH1 0x3 SWAP1 SWAP3 MUL ADD DUP1 SLOAD PUSH1 0x1 PUSH1 0x1 PUSH1 0xA0 SHL SUB NOT AND PUSH1 0x1 PUSH1 0x1 PUSH1 0xA0 SHL SUB SWAP1 SWAP3 AND SWAP2 SWAP1 SWAP2 OR DUP2 SSTORE SWAP2 DUP2 ADD MLOAD SWAP3 DUP3 ADD SWAP3 SWAP1 SWAP3 SSTORE PUSH1 0x40 DUP3 ADD MLOAD PUSH1 0x2 DUP3 ADD SWAP1 PUSH3 0x154 SWAP1 DUP3 PUSH3 0x6C4 JUMP JUMPDEST POP POP POP DUP1 DUP1 PUSH3 0x164 SWAP1 PUSH3 0x790 JUMP JUMPDEST SWAP2 POP POP PUSH3 0xCF JUMP JUMPDEST POP POP POP POP PUSH3 0x7C2 JUMP JUMPDEST PUSH1 0x0 DUP2 MLOAD GT PUSH3 0x1CA JUMPI PUSH1 0x40 MLOAD PUSH3 0x461BCD PUSH1 0xE5 SHL DUP2 MSTORE PUSH1 0x20 PUSH1 0x4 DUP3 ADD DUP2 SWAP1 MSTORE PUSH1 0x24 DUP3 ADD MSTORE PUSH32 0x4166746572636861696E57696C6C3A206E6F2062656E65666963696172696573 PUSH1 0x44 DUP3 ADD MSTORE PUSH1 0x64 ADD PUSH3 0x87 JUMP JUMPDEST PUSH1 0x0 DUP1 JUMPDEST DUP3 MLOAD DUP2 LT ISZERO PUSH3 0x324 JUMPI PUSH1 0x0 PUSH1 0x1 PUSH1 0x1 PUSH1 0xA0 SHL SUB AND DUP4 DUP3 DUP2 MLOAD DUP2 LT PUSH3 0x1F8 JUMPI PUSH3 0x1F8 PUSH3 0x61F JUMP JUMPDEST PUSH1 0x20 MUL PUSH1 0x20 ADD ADD MLOAD PUSH1 0x0 ADD MLOAD PUSH1 0x1 PUSH1 0x1 PUSH1 0xA0 SHL SUB AND SUB PUSH3 0x26D JUMPI PUSH1 0x40 MLOAD PUSH3 0x461BCD PUSH1 0xE5 SHL DUP2 MSTORE PUSH1 0x20 PUSH1 0x4 DUP3 ADD MSTORE PUSH1 0x28 PUSH1 0x24 DUP3 ADD MSTORE PUSH32 0x4166746572636861696E57696C6C3A207A65726F2062656E6566696369617279 PUSH1 0x44 DUP3 ADD MSTORE PUSH8 0x2061646472657373 PUSH1 0xC0 SHL PUSH1 0x64 DUP3 ADD MSTORE PUSH1 0x84 ADD PUSH3 0x87 JUMP JUMPDEST PUSH1 0x0 DUP4 DUP3 DUP2 MLOAD DUP2 LT PUSH3 0x284 JUMPI PUSH3 0x284 PUSH3 0x61F JUMP JUMPDEST PUSH1 0x20 MUL PUSH1 0x20 ADD ADD MLOAD PUSH1 0x20 ADD MLOAD GT PUSH3 0x2DF JUMPI PUSH1 0x40 MLOAD PUSH3 0x461BCD PUSH1 0xE5 SHL DUP2 MSTORE PUSH1 0x20 PUSH1 0x4 DUP3 ADD MSTORE PUSH1 0x1F PUSH1 0x24 DUP3 ADD MSTORE PUSH32 0x4166746572636861696E57696C6C3A207A65726F2070657263656E7461676500 PUSH1 0x44 DUP3 ADD MSTORE PUSH1 0x64 ADD PUSH3 0x87 JUMP JUMPDEST DUP3 DUP2 DUP2 MLOAD DUP2 LT PUSH3 0x2F4 JUMPI PUSH3 0x2F4 PUSH3 0x61F JUMP JUMPDEST PUSH1 0x20 MUL PUSH1 0x20 ADD ADD MLOAD PUSH1 0x20 ADD MLOAD DUP3 PUSH3 0x30D SWAP2 SWAP1 PUSH3 0x7AC JUMP JUMPDEST SWAP2 POP DUP1 PUSH3 0x31B DUP2 PUSH3 0x790 JUMP JUMPDEST SWAP2 POP POP PUSH3 0x1CE JUMP JUMPDEST POP DUP1 PUSH1 0x64 EQ PUSH3 0x38B JUMPI PUSH1 0x40 MLOAD PUSH3 0x461BCD PUSH1 0xE5 SHL DUP2 MSTORE PUSH1 0x20 PUSH1 0x4 DUP3 ADD MSTORE PUSH1 0x2B PUSH1 0x24 DUP3 ADD MSTORE PUSH32 0x4166746572636861696E57696C6C3A2070657263656E7461676573206D757374 PUSH1 0x44 DUP3 ADD MSTORE PUSH11 0x2073756D20746F2031303 PUSH1 0xAC SHL PUSH1 0x64 DUP3 ADD MSTORE PUSH1 0x84 ADD PUSH3 0x87 JUMP JUMPDEST POP POP JUMP JUMPDEST DUP1 MLOAD PUSH1 0x1 PUSH1 0x1 PUSH1 0xA0 SHL SUB DUP2 AND DUP2 EQ PUSH3 0x3A7 JUMPI PUSH1 0x0 DUP1 REVERT JUMPDEST SWAP2 SWAP1 POP JUMP JUMPDEST PUSH4 0x4E487B71 PUSH1 0xE0 SHL PUSH1 0x0 MSTORE PUSH1 0x41 PUSH1 0x4 MSTORE PUSH1 0x24 PUSH1 0x0 REVERT JUMPDEST PUSH1 0x40 MLOAD PUSH1 0x60 DUP2 ADD PUSH1 0x1 PUSH1 0x1 PUSH1 0x40 SHL SUB DUP2 GT DUP3 DUP3 LT OR ISZERO PUSH3 0x3E7 JUMPI PUSH3 0x3E7 PUSH3 0x3AC JUMP JUMPDEST PUSH1 0x40 MSTORE SWAP1 JUMP JUMPDEST PUSH1 0x40 MLOAD PUSH1 0x1F DUP3 ADD PUSH1 0x1F NOT AND DUP2 ADD PUSH1 0x1 PUSH1 0x1 PUSH1 0x40 SHL SUB DUP2 GT DUP3 DUP3 LT OR ISZERO PUSH3 0x418 JUMPI PUSH3 0x418 PUSH3 0x3AC JUMP JUMPDEST PUSH1 0x40 MSTORE SWAP2 SWAP1 POP JUMP JUMPDEST PUSH1 0x0 DUP1 PUSH1 0x0 PUSH1 0x60 DUP5 DUP7 SUB SLT ISZERO PUSH3 0x436 JUMPI PUSH1 0x0 DUP1 REVERT JUMPDEST PUSH3 0x441 DUP5 PUSH3 0x38F JUMP JUMPDEST PUSH1 0x20 DUP6 ADD MLOAD PUSH1 0x40 DUP7 ADD MLOAD SWAP2 SWAP5 POP SWAP3 POP PUSH1 0x1 PUSH1 0x1 PUSH1 0x40 SHL SUB DUP1 DUP3 GT ISZERO PUSH3 0x466 JUMPI PUSH1 0x0 DUP1 REVERT JUMPDEST DUP2 DUP7 ADD SWAP2 POP DUP7 PUSH1 0x1F DUP4 ADD SLT PUSH3 0x47B JUMPI PUSH1 0x0 DUP1 REVERT JUMPDEST DUP2 MLOAD DUP2 DUP2 GT ISZERO PUSH3 0x490 JUMPI PUSH3 0x490 PUSH3 0x3AC JUMP JUMPDEST PUSH3 0x4A1 PUSH1 0x20 DUP3 PUSH1 0x5 SHL ADD PUSH3 0x3ED JUMP JUMPDEST DUP1 DUP3 DUP3 MSTORE PUSH1 0x20 DUP3 ADD SWAP2 POP PUSH1 0x20 DUP4 PUSH1 0x5 SHL DUP7 ADD ADD SWAP3 POP DUP10 DUP4 GT ISZERO PUSH3 0x4C4 JUMPI PUSH1 0x0 DUP1 REVERT JUMPDEST PUSH1 0x20 DUP6 ADD JUMPDEST DUP4 DUP2 LT ISZERO PUSH3 0x5D9 JUMPI DUP1 MLOAD DUP6 DUP2 GT ISZERO PUSH3 0x4E2 JUMPI PUSH1 0x0 DUP1 REVERT JUMPDEST DUP7 ADD PUSH1 0x1F NOT PUSH1 0x60 DUP3 DUP15 SUB DUP3 ADD SLT ISZERO PUSH3 0x4FA JUMPI PUSH1 0x0 DUP1 REVERT JUMPDEST PUSH3 0x504 PUSH3 0x3C2 JUMP JUMPDEST PUSH3 0x512 PUSH1 0x20 DUP5 ADD PUSH3 0x38F JUMP JUMPDEST DUP2 MSTORE PUSH1 0x40 DUP4 ADD MLOAD PUSH1 0x20 DUP3 ADD MSTORE PUSH1 0x60 DUP4 ADD MLOAD DUP9 DUP2 GT ISZERO PUSH3 0x531 JUMPI PUSH1 0x0 DUP1 REVERT JUMPDEST DUP1 DUP5 ADD SWAP4 POP POP DUP14 PUSH1 0x3F DUP5 ADD SLT PUSH3 0x547 JUMPI PUSH1 0x0 DUP1 REVERT JUMPDEST PUSH1 0x20 DUP4 ADD MLOAD DUP9 DUP2 GT ISZERO PUSH3 0x55F JUMPI PUSH3 0x55F PUSH3 0x3AC JUMP JUMPDEST PUSH3 0x572 PUSH1 0x20 DUP5 PUSH1 0x1F DUP5 ADD AND ADD PUSH3 0x3ED JUMP JUMPDEST SWAP3 POP DUP1 DUP4 MSTORE DUP15 PUSH1 0x40 DUP3 DUP7 ADD ADD GT ISZERO PUSH3 0x58A JUMPI PUSH1 0x0 DUP1 REVERT JUMPDEST PUSH1 0x0 JUMPDEST DUP2 DUP2 LT ISZERO PUSH3 0x5B0 JUMPI PUSH1 0x40 DUP2 DUP7 ADD ADD MLOAD PUSH1 0x20 DUP3 DUP7 ADD ADD MSTORE PUSH1 0x20 DUP2 ADD SWAP1 POP PUSH3 0x58D JUMP JUMPDEST POP PUSH1 0x0 PUSH1 0x20 DUP3 DUP6 ADD ADD MSTORE POP DUP2 PUSH1 0x40 DUP3 ADD MSTORE DUP1 DUP7 MSTORE POP POP POP PUSH1 0x20 DUP4 ADD SWAP3 POP PUSH1 0x20 DUP2 ADD SWAP1 POP PUSH3 0x4C9 JUMP JUMPDEST POP DUP1 SWAP6 POP POP POP POP POP POP SWAP3 POP SWAP3 POP SWAP3 JUMP JUMPDEST PUSH4 0x4E487B71 PUSH1 0xE0 SHL PUSH1 0x0 MSTORE PUSH1 0x11 PUSH1 0x4 MSTORE PUSH1 0x24 PUSH1 0x0 REVERT JUMPDEST DUP1 DUP3 MUL DUP2 ISZERO DUP3 DUP3 DIV DUP5 EQ OR PUSH3 0x619 JUMPI PUSH3 0x619 PUSH3 0x5E9 JUMP JUMPDEST SWAP3 SWAP2 POP POP JUMP JUMPDEST PUSH4 0x4E487B71 PUSH1 0xE0 SHL PUSH1 0x0 MSTORE PUSH1 0x32 PUSH1 0x4 MSTORE PUSH1 0x24 PUSH1 0x0 REVERT JUMPDEST PUSH1 0x1 DUP2 DUP2 SHR SWAP1 DUP3 AND DUP1 PUSH3 0x64A JUMPI PUSH1 0x7F DUP3 AND SWAP2 POP JUMPDEST PUSH1 0x20 DUP3 LT DUP2 SUB PUSH3 0x66B JUMPI PUSH4 0x4E487B71 PUSH1 0xE0 SHL PUSH1 0x0 MSTORE PUSH1 0x22 PUSH1 0x4 MSTORE PUSH1 0x24 PUSH1 0x0 REVERT JUMPDEST POP SWAP2 SWAP1 POP JUMP JUMPDEST PUSH1 0x1F DUP3 GT ISZERO PUSH3 0x6BF JUMPI PUSH1 0x0 DUP2 DUP2 MSTORE PUSH1 0x20 DUP2 KECCAK256 PUSH1 0x1F DUP6 ADD PUSH1 0x5 SHR DUP2 ADD PUSH1 0x20 DUP7 LT ISZERO PUSH3 0x69A JUMPI POP DUP1 JUMPDEST PUSH1 0x1F DUP6 ADD PUSH1 0x5 SHR DUP3 ADD SWAP2 POP JUMPDEST DUP2 DUP2 LT ISZERO PUSH3 0x6BB JUMPI DUP3 DUP2 SSTORE PUSH1 0x1 ADD PUSH3 0x6A6 JUMP JUMPDEST POP POP POP JUMPDEST POP POP POP JUMP JUMPDEST DUP2 MLOAD PUSH1 0x1 PUSH1 0x1 PUSH1 0x40 SHL SUB DUP2 GT ISZERO PUSH3 0x6E0 JUMPI PUSH3 0x6E0 PUSH3 0x3AC JUMP JUMPDEST PUSH3 0x6F8 DUP2 PUSH3 0x6F1 DUP5 SLOAD PUSH3 0x635 JUMP JUMPDEST DUP5 PUSH3 0x671 JUMP JUMPDEST PUSH1 0x20 DUP1 PUSH1 0x1F DUP4 GT PUSH1 0x1 DUP2 EQ PUSH3 0x730 JUMPI PUSH1 0x0 DUP5 ISZERO PUSH3 0x717 JUMPI POP DUP6 DUP4 ADD MLOAD JUMPDEST PUSH1 0x0 NOT PUSH1 0x3 DUP7 SWAP1 SHL SHR NOT AND PUSH1 0x1 DUP6 SWAP1 SHL OR DUP6 SSTORE PUSH3 0x6BB JUMP JUMPDEST PUSH1 0x0 DUP6 DUP2 MSTORE PUSH1 0x20 DUP2 KECCAK256 PUSH1 0x1F NOT DUP7 AND SWAP2 JUMPDEST DUP3 DUP2 LT ISZERO PUSH3 0x761 JUMPI DUP9 DUP7 ADD MLOAD DUP3 SSTORE SWAP5 DUP5 ADD SWAP5 PUSH1 0x1 SWAP1 SWAP2 ADD SWAP1 DUP5 ADD PUSH3 0x740 JUMP JUMPDEST POP DUP6 DUP3 LT ISZERO PUSH3 0x780 JUMPI DUP8 DUP6 ADD MLOAD PUSH1 0x0 NOT PUSH1 0x3 DUP9 SWAP1 SHL PUSH1 0xF8 AND SHR NOT AND DUP2 SSTORE JUMPDEST POP POP POP POP POP PUSH1 0x1 SWAP1 DUP2 SHL ADD SWAP1 SSTORE POP JUMP JUMPDEST PUSH1 0x0 PUSH1 0x1 DUP3 ADD PUSH3 0x7A5 JUMPI PUSH3 0x7A5 PUSH3 0x5E9 JUMP JUMPDEST POP PUSH1 0x1 ADD SWAP1 JUMP JUMPDEST DUP1 DUP3 ADD DUP1 DUP3 GT ISZERO PUSH3 0x619 JUMPI PUSH3 0x619 PUSH3 0x5E9 JUMP JUMPDEST PUSH2 0x14E7 DUP1 PUSH3 0x7D2 PUSH1 0x0 CODECOPY PUSH1 0x0 RETURN INVALID PUSH1 0x80 PUSH1 0x40 MSTORE PUSH1 0x4 CALLDATASIZE LT PUSH2 0xA0 JUMPI PUSH1 0x0 CALLDATALOAD PUSH1 0xE0 SHR DUP1 PUSH4 0x8DA5CB5B GT PUSH2 0x64 JUMPI DUP1 PUSH4 0x8DA5CB5B EQ PUSH2 0x181 JUMPI DUP1 PUSH4 0x8FC4C35E EQ PUSH2 0x1B9 JUMPI DUP1 PUSH4 0x913B722C EQ PUSH2 0x1EB JUMPI DUP1 PUSH4 0xA495AAFF EQ PUSH2 0x20D JUMPI DUP1 PUSH4 0xA5B83635 EQ PUSH2 0x22D JUMPI DUP1 PUSH4 0xEFEB5E58 EQ PUSH2 0x242 JUMPI PUSH1 0x0 DUP1 REVERT JUMPDEST DUP1 PUSH4 0x31A38C89 EQ PUSH2 0xE1 JUMPI DUP1 PUSH4 0x3DEFB962 EQ PUSH2 0x110 JUMPI DUP1 PUSH4 0x561A4FAC EQ PUSH2 0x127 JUMPI DUP1 PUSH4 0x69C1A712 EQ PUSH2 0x14B JUMPI DUP1 PUSH4 0x6CAF7210 EQ PUSH2 0x161 JUMPI PUSH1 0x0 DUP1 REVERT JUMPDEST CALLDATASIZE PUSH2 0xDC JUMPI PUSH1 0x40 MLOAD CALLVALUE DUP2 MSTORE CALLER SWAP1 PUSH32 0x568FDC64B832566E65A2900EA275AF0F00FB33A4D713867B85522A5FD6479230 SWAP1 PUSH1 0x20 ADD PUSH1 0x40 MLOAD DUP1 SWAP2 SUB SWAP1 LOG2 STOP JUMPDEST PUSH1 0x0 DUP1 REVERT JUMPDEST CALLVALUE DUP1 ISZERO PUSH2 0xED JUMPI PUSH1 0x0 DUP1 REVERT JUMPDEST POP PUSH1 0x3 SLOAD PUSH2 0xFB SWAP1 PUSH1 0xFF AND DUP2 JUMP JUMPDEST PUSH1 0x40 MLOAD SWAP1 ISZERO ISZERO DUP2 MSTORE PUSH1 0x20 ADD JUMPDEST PUSH1 0x40 MLOAD DUP1 SWAP2 SUB SWAP1 RETURN JUMPDEST CALLVALUE DUP1 ISZERO PUSH2 0x11C JUMPI PUSH1 0x0 DUP1 REVERT JUMPDEST POP PUSH2 0x125 PUSH2 0x271 JUMP JUMPDEST STOP JUMPDEST CALLVALUE DUP1 ISZERO PUSH2 0x133 JUMPI PUSH1 0x0 DUP1 REVERT JUMPDEST POP PUSH2 0x13D PUSH1 0x2 SLOAD DUP2 JUMP JUMPDEST PUSH1 0x40 MLOAD SWAP1 DUP2 MSTORE PUSH1 0x20 ADD PUSH2 0x107 JUMP JUMPDEST CALLVALUE DUP1 ISZERO PUSH2 0x157 JUMPI PUSH1 0x0 DUP1 REVERT JUMPDEST POP PUSH2 0x13D PUSH1 0x1 SLOAD DUP2 JUMP JUMPDEST CALLVALUE DUP1 ISZERO PUSH2 0x16D JUMPI PUSH1 0x0 DUP1 REVERT JUMPDEST POP PUSH2 0x125 PUSH2 0x17C CALLDATASIZE PUSH1 0x4 PUSH2 0xF4D JUMP JUMPDEST PUSH2 0x337 JUMP JUMPDEST CALLVALUE DUP1 ISZERO PUSH2 0x18D JUMPI PUSH1 0x0 DUP1 REVERT JUMPDEST POP PUSH1 0x0 SLOAD PUSH2 0x1A1 SWAP1 PUSH1 0x1 PUSH1 0x1 PUSH1 0xA0 SHL SUB AND DUP2 JUMP JUMPDEST PUSH1 0x40 MLOAD PUSH1 0x1 PUSH1 0x1 PUSH1 0xA0 SHL SUB SWAP1 SWAP2 AND DUP2 MSTORE PUSH1 0x20 ADD PUSH2 0x107 JUMP JUMPDEST CALLVALUE DUP1 ISZERO PUSH2 0x1C5 JUMPI PUSH1 0x0 DUP1 REVERT JUMPDEST POP PUSH2 0x1CE PUSH2 0x5C4 JUMP JUMPDEST PUSH1 0x40 DUP1 MLOAD SWAP4 ISZERO ISZERO DUP5 MSTORE PUSH1 0x20 DUP5 ADD SWAP3 SWAP1 SWAP3 MSTORE SWAP1 DUP3 ADD MSTORE PUSH1 0x60 ADD PUSH2 0x107 JUMP JUMPDEST CALLVALUE DUP1 ISZERO PUSH2 0x1F7 JUMPI PUSH1 0x0 DUP1 REVERT JUMPDEST POP PUSH2 0x200 PUSH2 0x625 JUMP JUMPDEST PUSH1 0x40 MLOAD PUSH2 0x107 SWAP2 SWAP1 PUSH2 0xFB5 JUMP JUMPDEST CALLVALUE DUP1 ISZERO PUSH2 0x219 JUMPI PUSH1 0x0 DUP1 REVERT JUMPDEST POP PUSH2 0x125 PUSH2 0x228 CALLDATASIZE PUSH1 0x4 PUSH2 0x10AD JUMP JUMPDEST PUSH2 0x736 JUMP JUMPDEST CALLVALUE DUP1 ISZERO PUSH2 0x239 JUMPI PUSH1 0x0 DUP1 REVERT JUMPDEST POP PUSH2 0x125 PUSH2 0x8A4 JUMP JUMPDEST CALLVALUE DUP1 ISZERO PUSH2 0x24E JUMPI PUSH1 0x0 DUP1 REVERT JUMPDEST POP PUSH2 0x262 PUSH2 0x25D CALLDATASIZE PUSH1 0x4 PUSH2 0x1218 JUMP JUMPDEST PUSH2 0x98D JUMP JUMPDEST PUSH1 0x40 MLOAD PUSH2 0x107 SWAP4 SWAP3 SWAP2 SWAP1 PUSH2 0x1231 JUMP JUMPDEST PUSH1 0x0 SLOAD PUSH1 0x1 PUSH1 0x1 PUSH1 0xA0 SHL SUB AND CALLER EQ PUSH2 0x2CC JUMPI PUSH1 0x40 MLOAD PUSH3 0x461BCD PUSH1 0xE5 SHL DUP2 MSTORE PUSH1 0x20 PUSH1 0x4 DUP3 ADD MSTORE PUSH1 0x19 PUSH1 0x24 DUP3 ADD MSTORE PUSH25 0x20B33A32B931B430B4B72BB4B6361D103737BA1037BBB732B9 PUSH1 0x39 SHL PUSH1 0x44 DUP3 ADD MSTORE PUSH1 0x64 ADD JUMPDEST PUSH1 0x40 MLOAD DUP1 SWAP2 SUB SWAP1 REVERT JUMPDEST PUSH1 0x3 SLOAD PUSH1 0xFF AND ISZERO PUSH2 0x2EF JUMPI PUSH1 0x40 MLOAD PUSH3 0x461BCD PUSH1 0xE5 SHL DUP2 MSTORE PUSH1 0x4 ADD PUSH2 0x2C3 SWAP1 PUSH2 0x1261 JUMP JUMPDEST TIMESTAMP PUSH1 0x1 DUP2 SWAP1 SSTORE PUSH1 0x0 SLOAD PUSH1 0x40 MLOAD SWAP2 DUP3 MSTORE PUSH1 0x1 PUSH1 0x1 PUSH1 0xA0 SHL SUB AND SWAP1 PUSH32 0x878229CAB17522B0AA9FE67EF166BA37857B7FDB46CD8748179A9D9A7373727F SWAP1 PUSH1 0x20 ADD PUSH1 0x40 MLOAD DUP1 SWAP2 SUB SWAP1 LOG2 JUMP JUMPDEST PUSH1 0x3 SLOAD PUSH1 0xFF AND PUSH2 0x397 JUMPI PUSH1 0x40 MLOAD PUSH3 0x461BCD PUSH1 0xE5 SHL DUP2 MSTORE PUSH1 0x20 PUSH1 0x4 DUP3 ADD MSTORE PUSH1 0x25 PUSH1 0x24 DUP3 ADD MSTORE PUSH32 0x4166746572636861696E57696C6C3A2077696C6C206E6F742079657420657865 PUSH1 0x44 DUP3 ADD MSTORE PUSH5 0x18DD5D1959 PUSH1 0xDA SHL PUSH1 0x64 DUP3 ADD MSTORE PUSH1 0x84 ADD PUSH2 0x2C3 JUMP JUMPDEST PUSH1 0x1 PUSH1 0x1 PUSH1 0xA0 SHL SUB DUP2 AND PUSH2 0x3F8 JUMPI PUSH1 0x40 MLOAD PUSH3 0x461BCD PUSH1 0xE5 SHL DUP2 MSTORE PUSH1 0x20 PUSH1 0x4 DUP3 ADD MSTORE PUSH1 0x22 PUSH1 0x24 DUP3 ADD MSTORE PUSH32 0x4166746572636861696E57696C6C3A207A65726F20746F6B656E206164647265 PUSH1 0x44 DUP3 ADD MSTORE PUSH2 0x7373 PUSH1 0xF0 SHL PUSH1 0x64 DUP3 ADD MSTORE PUSH1 0x84 ADD PUSH2 0x2C3 JUMP JUMPDEST PUSH1 0x40 MLOAD PUSH4 0x70A08231 PUSH1 0xE0 SHL DUP2 MSTORE ADDRESS PUSH1 0x4 DUP3 ADD MSTORE DUP2 SWAP1 PUSH1 0x0 SWAP1 PUSH1 0x1 PUSH1 0x1 PUSH1 0xA0 SHL SUB DUP4 AND SWAP1 PUSH4 0x70A08231 SWAP1 PUSH1 0x24 ADD PUSH1 0x20 PUSH1 0x40 MLOAD DUP1 DUP4 SUB DUP2 DUP7 GAS STATICCALL ISZERO DUP1 ISZERO PUSH2 0x441 JUMPI RETURNDATASIZE PUSH1 0x0 DUP1 RETURNDATACOPY RETURNDATASIZE PUSH1 0x0 REVERT JUMPDEST POP POP POP POP PUSH1 0x40 MLOAD RETURNDATASIZE PUSH1 0x1F NOT PUSH1 0x1F DUP3 ADD AND DUP3 ADD DUP1 PUSH1 0x40 MSTORE POP DUP2 ADD SWAP1 PUSH2 0x465 SWAP2 SWAP1 PUSH2 0x12A6 JUMP JUMPDEST SWAP1 POP PUSH1 0x0 DUP2 GT PUSH2 0x4B7 JUMPI PUSH1 0x40 MLOAD PUSH3 0x461BCD PUSH1 0xE5 SHL DUP2 MSTORE PUSH1 0x20 PUSH1 0x4 DUP3 ADD DUP2 SWAP1 MSTORE PUSH1 0x24 DUP3 ADD MSTORE PUSH32 0x4166746572636861696E57696C6C3A206E6F20746F6B656E2062616C616E6365 PUSH1 0x44 DUP3 ADD MSTORE PUSH1 0x64 ADD PUSH2 0x2C3 JUMP JUMPDEST PUSH1 0x0 JUMPDEST PUSH1 0x4 SLOAD DUP2 LT ISZERO PUSH2 0x5BE JUMPI PUSH1 0x0 PUSH1 0x64 PUSH1 0x4 DUP4 DUP2 SLOAD DUP2 LT PUSH2 0x4DB JUMPI PUSH2 0x4DB PUSH2 0x12BF JUMP JUMPDEST SWAP1 PUSH1 0x0 MSTORE PUSH1 0x20 PUSH1 0x0 KECCAK256 SWAP1 PUSH1 0x3 MUL ADD PUSH1 0x1 ADD SLOAD DUP5 PUSH2 0x4F8 SWAP2 SWAP1 PUSH2 0x12EB JUMP JUMPDEST PUSH2 0x502 SWAP2 SWAP1 PUSH2 0x1308 JUMP JUMPDEST SWAP1 POP DUP1 ISZERO PUSH2 0x5AB JUMPI PUSH2 0x544 PUSH1 0x4 DUP4 DUP2 SLOAD DUP2 LT PUSH2 0x520 JUMPI PUSH2 0x520 PUSH2 0x12BF JUMP JUMPDEST PUSH1 0x0 SWAP2 DUP3 MSTORE PUSH1 0x20 SWAP1 SWAP2 KECCAK256 PUSH1 0x3 SWAP1 SWAP2 MUL ADD SLOAD PUSH1 0x1 PUSH1 0x1 PUSH1 0xA0 SHL SUB DUP7 DUP2 AND SWAP2 AND DUP4 PUSH2 0xA56 JUMP JUMPDEST PUSH1 0x4 DUP3 DUP2 SLOAD DUP2 LT PUSH2 0x557 JUMPI PUSH2 0x557 PUSH2 0x12BF JUMP JUMPDEST PUSH1 0x0 SWAP2 DUP3 MSTORE PUSH1 0x20 SWAP2 DUP3 SWAP1 KECCAK256 PUSH1 0x3 SWAP1 SWAP2 MUL ADD SLOAD PUSH1 0x40 MLOAD DUP4 DUP2 MSTORE PUSH1 0x1 PUSH1 0x1 PUSH1 0xA0 SHL SUB SWAP2 DUP3 AND SWAP3 SWAP2 DUP9 AND SWAP2 PUSH32 0x67226BACCCEF969DAB310A9E55DC1CF821363658E433FD330344F5CC00C79AC8 SWAP2 ADD PUSH1 0x40 MLOAD DUP1 SWAP2 SUB SWAP1 LOG3 JUMPDEST POP DUP1 PUSH2 0x5B6 DUP2 PUSH2 0x132A JUMP JUMPDEST SWAP2 POP POP PUSH2 0x4BA JUMP JUMPDEST POP POP POP POP JUMP JUMPDEST PUSH1 0x3 SLOAD PUSH1 0x1 SLOAD PUSH1 0xFF SWAP1 SWAP2 AND SWAP1 PUSH1 0x0 DUP3 ISZERO PUSH2 0x5E0 JUMPI POP PUSH1 0x0 SWAP1 SWAP2 SWAP3 JUMP JUMPDEST PUSH1 0x0 PUSH1 0x2 SLOAD PUSH1 0x1 SLOAD PUSH2 0x5F2 SWAP2 SWAP1 PUSH2 0x1343 JUMP JUMPDEST SWAP1 POP DUP1 TIMESTAMP LT PUSH2 0x604 JUMPI PUSH1 0x0 SWAP2 POP PUSH2 0x61F JUMP JUMPDEST PUSH3 0x15180 PUSH2 0x612 TIMESTAMP DUP4 PUSH2 0x1356 JUMP JUMPDEST PUSH2 0x61C SWAP2 SWAP1 PUSH2 0x1308 JUMP JUMPDEST SWAP2 POP JUMPDEST POP SWAP1 SWAP2 SWAP3 JUMP JUMPDEST PUSH1 0x60 PUSH1 0x4 DUP1 SLOAD DUP1 PUSH1 0x20 MUL PUSH1 0x20 ADD PUSH1 0x40 MLOAD SWAP1 DUP2 ADD PUSH1 0x40 MSTORE DUP1 SWAP3 SWAP2 SWAP1 DUP2 DUP2 MSTORE PUSH1 0x20 ADD PUSH1 0x0 SWAP1 JUMPDEST DUP3 DUP3 LT ISZERO PUSH2 0x72D JUMPI PUSH1 0x0 DUP5 DUP2 MSTORE PUSH1 0x20 SWAP1 DUP2 SWAP1 KECCAK256 PUSH1 0x40 DUP1 MLOAD PUSH1 0x60 DUP2 ADD DUP3 MSTORE PUSH1 0x3 DUP7 MUL SWAP1 SWAP3 ADD DUP1 SLOAD PUSH1 0x1 PUSH1 0x1 PUSH1 0xA0 SHL SUB AND DUP4 MSTORE PUSH1 0x1 DUP2 ADD SLOAD SWAP4 DUP4 ADD SWAP4 SWAP1 SWAP4 MSTORE PUSH1 0x2 DUP4 ADD DUP1 SLOAD SWAP3 SWAP4 SWAP3 SWAP2 DUP5 ADD SWAP2 PUSH2 0x69C SWAP1 PUSH2 0x1369 JUMP JUMPDEST DUP1 PUSH1 0x1F ADD PUSH1 0x20 DUP1 SWAP2 DIV MUL PUSH1 0x20 ADD PUSH1 0x40 MLOAD SWAP1 DUP2 ADD PUSH1 0x40 MSTORE DUP1 SWAP3 SWAP2 SWAP1 DUP2 DUP2 MSTORE PUSH1 0x20 ADD DUP3 DUP1 SLOAD PUSH2 0x6C8 SWAP1 PUSH2 0x1369 JUMP JUMPDEST DUP1 ISZERO PUSH2 0x715 JUMPI DUP1 PUSH1 0x1F LT PUSH2 0x6EA JUMPI PUSH2 0x100 DUP1 DUP4 SLOAD DIV MUL DUP4 MSTORE SWAP2 PUSH1 0x20 ADD SWAP2 PUSH2 0x715 JUMP JUMPDEST DUP3 ADD SWAP2 SWAP1 PUSH1 0x0 MSTORE PUSH1 0x20 PUSH1 0x0 KECCAK256 SWAP1 JUMPDEST DUP2 SLOAD DUP2 MSTORE SWAP1 PUSH1 0x1 ADD SWAP1 PUSH1 0x20 ADD DUP1 DUP4 GT PUSH2 0x6F8 JUMPI DUP3 SWAP1 SUB PUSH1 0x1F AND DUP3 ADD SWAP2 JUMPDEST POP POP POP POP POP DUP2 MSTORE POP POP DUP2 MSTORE PUSH1 0x20 ADD SWAP1 PUSH1 0x1 ADD SWAP1 PUSH2 0x649 JUMP JUMPDEST POP POP POP POP SWAP1 POP SWAP1 JUMP JUMPDEST PUSH1 0x0 SLOAD PUSH1 0x1 PUSH1 0x1 PUSH1 0xA0 SHL SUB AND CALLER EQ PUSH2 0x78C JUMPI PUSH1 0x40 MLOAD PUSH3 0x461BCD PUSH1 0xE5 SHL DUP2 MSTORE PUSH1 0x20 PUSH1 0x4 DUP3 ADD MSTORE PUSH1 0x19 PUSH1 0x24 DUP3 ADD MSTORE PUSH25 0x20B33A32B931B430B4B72BB4B6361D103737BA1037BBB732B9 PUSH1 0x39 SHL PUSH1 0x44 DUP3 ADD MSTORE PUSH1 0x64 ADD PUSH2 0x2C3 JUMP JUMPDEST PUSH1 0x3 SLOAD PUSH1 0xFF AND ISZERO PUSH2 0x7AF JUMPI PUSH1 0x40 MLOAD PUSH3 0x461BCD PUSH1 0xE5 SHL DUP2 MSTORE PUSH1 0x4 ADD PUSH2 0x2C3 SWAP1 PUSH2 0x1261 JUMP JUMPDEST PUSH2 0x7B8 DUP2 PUSH2 0xA90 JUMP JUMPDEST PUSH2 0x7C4 PUSH1 0x4 PUSH1 0x0 PUSH2 0xE91 JUMP JUMPDEST PUSH1 0x0 JUMPDEST DUP2 MLOAD DUP2 LT ISZERO PUSH2 0x85C JUMPI PUSH1 0x4 DUP3 DUP3 DUP2 MLOAD DUP2 LT PUSH2 0x7E4 JUMPI PUSH2 0x7E4 PUSH2 0x12BF JUMP JUMPDEST PUSH1 0x20 SWAP1 DUP2 MUL SWAP2 SWAP1 SWAP2 ADD DUP2 ADD MLOAD DUP3 SLOAD PUSH1 0x1 DUP1 DUP3 ADD DUP6 SSTORE PUSH1 0x0 SWAP5 DUP6 MSTORE SWAP4 DUP4 SWAP1 KECCAK256 DUP3 MLOAD PUSH1 0x3 SWAP1 SWAP3 MUL ADD DUP1 SLOAD PUSH1 0x1 PUSH1 0x1 PUSH1 0xA0 SHL SUB NOT AND PUSH1 0x1 PUSH1 0x1 PUSH1 0xA0 SHL SUB SWAP1 SWAP3 AND SWAP2 SWAP1 SWAP2 OR DUP2 SSTORE SWAP2 DUP2 ADD MLOAD SWAP3 DUP3 ADD SWAP3 SWAP1 SWAP3 SSTORE PUSH1 0x40 DUP3 ADD MLOAD PUSH1 0x2 DUP3 ADD SWAP1 PUSH2 0x846 SWAP1 DUP3 PUSH2 0x13F1 JUMP JUMPDEST POP POP POP DUP1 DUP1 PUSH2 0x854 SWAP1 PUSH2 0x132A JUMP JUMPDEST SWAP2 POP POP PUSH2 0x7C7 JUMP JUMPDEST POP PUSH1 0x0 SLOAD DUP2 MLOAD PUSH1 0x40 MLOAD SWAP1 DUP2 MSTORE PUSH1 0x1 PUSH1 0x1 PUSH1 0xA0 SHL SUB SWAP1 SWAP2 AND SWAP1 PUSH32 0x1EABCECD53C7B5A3968414FCCF52314D0190DF64D163161F430456FA5D9C8CED SWAP1 PUSH1 0x20 ADD PUSH1 0x40 MLOAD DUP1 SWAP2 SUB SWAP1 LOG2 POP JUMP JUMPDEST PUSH1 0x3 SLOAD PUSH1 0xFF AND ISZERO PUSH2 0x8C7 JUMPI PUSH1 0x40 MLOAD PUSH3 0x461BCD PUSH1 0xE5 SHL DUP2 MSTORE PUSH1 0x4 ADD PUSH2 0x2C3 SWAP1 PUSH2 0x1261 JUMP JUMPDEST PUSH1 0x2 SLOAD PUSH1 0x1 SLOAD PUSH2 0x8D7 SWAP2 SWAP1 PUSH2 0x1343 JUMP JUMPDEST TIMESTAMP GT PUSH2 0x931 JUMPI PUSH1 0x40 MLOAD PUSH3 0x461BCD PUSH1 0xE5 SHL DUP2 MSTORE PUSH1 0x20 PUSH1 0x4 DUP3 ADD MSTORE PUSH1 0x24 DUP1 DUP3 ADD MSTORE PUSH32 0x4166746572636861696E57696C6C3A206F776E6572206973207374696C6C2061 PUSH1 0x44 DUP3 ADD MSTORE PUSH4 0x6C697665 PUSH1 0xE0 SHL PUSH1 0x64 DUP3 ADD MSTORE PUSH1 0x84 ADD PUSH2 0x2C3 JUMP JUMPDEST PUSH1 0x3 DUP1 SLOAD PUSH1 0xFF NOT AND PUSH1 0x1 OR SWAP1 SSTORE PUSH1 0x40 MLOAD CALLER SWAP1 PUSH32 0xAC8AE454AB5EDD07D536A5C6584F39F829039F54889168E45278E74B7D062A3F SWAP1 PUSH2 0x972 SWAP1 TIMESTAMP DUP2 MSTORE PUSH1 0x20 ADD SWAP1 JUMP JUMPDEST PUSH1 0x40 MLOAD DUP1 SWAP2 SUB SWAP1 LOG2 SELFBALANCE DUP1 ISZERO PUSH2 0x98A JUMPI PUSH2 0x98A DUP2 PUSH2 0xC91 JUMP JUMPDEST POP JUMP JUMPDEST PUSH1 0x4 DUP2 DUP2 SLOAD DUP2 LT PUSH2 0x99D JUMPI PUSH1 0x0 DUP1 REVERT JUMPDEST PUSH1 0x0 SWAP2 DUP3 MSTORE PUSH1 0x20 SWAP1 SWAP2 KECCAK256 PUSH1 0x3 SWAP1 SWAP2 MUL ADD DUP1 SLOAD PUSH1 0x1 DUP3 ADD SLOAD PUSH1 0x2 DUP4 ADD DUP1 SLOAD PUSH1 0x1 PUSH1 0x1 PUSH1 0xA0 SHL SUB SWAP1 SWAP4 AND SWAP5 POP SWAP1 SWAP3 SWAP2 PUSH2 0x9D3 SWAP1 PUSH2 0x1369 JUMP JUMPDEST DUP1 PUSH1 0x1F ADD PUSH1 0x20 DUP1 SWAP2 DIV MUL PUSH1 0x20 ADD PUSH1 0x40 MLOAD SWAP1 DUP2 ADD PUSH1 0x40 MSTORE DUP1 SWAP3 SWAP2 SWAP1 DUP2 DUP2 MSTORE PUSH1 0x20 ADD DUP3 DUP1 SLOAD PUSH2 0x9FF SWAP1 PUSH2 0x1369 JUMP JUMPDEST DUP1 ISZERO PUSH2 0xA4C JUMPI DUP1 PUSH1 0x1F LT PUSH2 0xA21 JUMPI PUSH2 0x100 DUP1 DUP4 SLOAD DIV MUL DUP4 MSTORE SWAP2 PUSH1 0x20 ADD SWAP2 PUSH2 0xA4C JUMP JUMPDEST DUP3 ADD SWAP2 SWAP1 PUSH1 0x0 MSTORE PUSH1 0x20 PUSH1 0x0 KECCAK256 SWAP1 JUMPDEST DUP2 SLOAD DUP2 MSTORE SWAP1 PUSH1 0x1 ADD SWAP1 PUSH1 0x20 ADD DUP1 DUP4 GT PUSH2 0xA2F JUMPI DUP3 SWAP1 SUB PUSH1 0x1F AND DUP3 ADD SWAP2 JUMPDEST POP POP POP POP POP SWAP1 POP DUP4 JUMP JUMPDEST PUSH2 0xA63 DUP4 DUP4 DUP4 PUSH1 0x1 PUSH2 0xE2B JUMP JUMPDEST PUSH2 0xA8B JUMPI PUSH1 0x40 MLOAD PUSH4 0x5274AFE7 PUSH1 0xE0 SHL DUP2 MSTORE PUSH1 0x1 PUSH1 0x1 PUSH1 0xA0 SHL SUB DUP5 AND PUSH1 0x4 DUP3 ADD MSTORE PUSH1 0x24 ADD PUSH2 0x2C3 JUMP JUMPDEST POP POP POP JUMP JUMPDEST PUSH1 0x0 DUP2 MLOAD GT PUSH2 0xAE1 JUMPI PUSH1 0x40 MLOAD PUSH3 0x461BCD PUSH1 0xE5 SHL DUP2 MSTORE PUSH1 0x20 PUSH1 0x4 DUP3 ADD DUP2 SWAP1 MSTORE PUSH1 0x24 DUP3 ADD MSTORE PUSH32 0x4166746572636861696E57696C6C3A206E6F2062656E65666963696172696573 PUSH1 0x44 DUP3 ADD MSTORE PUSH1 0x64 ADD PUSH2 0x2C3 JUMP JUMPDEST PUSH1 0x0 DUP1 JUMPDEST DUP3 MLOAD DUP2 LT ISZERO PUSH2 0xC28 JUMPI PUSH1 0x0 PUSH1 0x1 PUSH1 0x1 PUSH1 0xA0 SHL SUB AND DUP4 DUP3 DUP2 MLOAD DUP2 LT PUSH2 0xB0B JUMPI PUSH2 0xB0B PUSH2 0x12BF JUMP JUMPDEST PUSH1 0x20 MUL PUSH1 0x20 ADD ADD MLOAD PUSH1 0x0 ADD MLOAD PUSH1 0x1 PUSH1 0x1 PUSH1 0xA0 SHL SUB AND SUB PUSH2 0xB7E JUMPI PUSH1 0x40 MLOAD PUSH3 0x461BCD PUSH1 0xE5 SHL DUP2 MSTORE PUSH1 0x20 PUSH1 0x4 DUP3 ADD MSTORE PUSH1 0x28 PUSH1 0x24 DUP3 ADD MSTORE PUSH32 0x4166746572636861696E57696C6C3A207A65726F2062656E6566696369617279 PUSH1 0x44 DUP3 ADD MSTORE PUSH8 0x2061646472657373 PUSH1 0xC0 SHL PUSH1 0x64 DUP3 ADD MSTORE PUSH1 0x84 ADD PUSH2 0x2C3 JUMP JUMPDEST PUSH1 0x0 DUP4 DUP3 DUP2 MLOAD DUP2 LT PUSH2 0xB92 JUMPI PUSH2 0xB92 PUSH2 0x12BF JUMP JUMPDEST PUSH1 0x20 MUL PUSH1 0x20 ADD ADD MLOAD PUSH1 0x20 ADD MLOAD GT PUSH2 0xBEB JUMPI PUSH1 0x40 MLOAD PUSH3 0x461BCD PUSH1 0xE5 SHL DUP2 MSTORE PUSH1 0x20 PUSH1 0x4 DUP3 ADD MSTORE PUSH1 0x1F PUSH1 0x24 DUP3 ADD MSTORE PUSH32 0x4166746572636861696E57696C6C3A207A65726F2070657263656E7461676500 PUSH1 0x44 DUP3 ADD MSTORE PUSH1 0x64 ADD PUSH2 0x2C3 JUMP JUMPDEST DUP3 DUP2 DUP2 MLOAD DUP2 LT PUSH2 0xBFD JUMPI PUSH2 0xBFD PUSH2 0x12BF JUMP JUMPDEST PUSH1 0x20 MUL PUSH1 0x20 ADD ADD MLOAD PUSH1 0x20 ADD MLOAD DUP3 PUSH2 0xC14 SWAP2 SWAP1 PUSH2 0x1343 JUMP JUMPDEST SWAP2 POP DUP1 PUSH2 0xC20 DUP2 PUSH2 0x132A JUMP JUMPDEST SWAP2 POP POP PUSH2 0xAE5 JUMP JUMPDEST POP DUP1 PUSH1 0x64 EQ PUSH2 0xC8D JUMPI PUSH1 0x40 MLOAD PUSH3 0x461BCD PUSH1 0xE5 SHL DUP2 MSTORE PUSH1 0x20 PUSH1 0x4 DUP3 ADD MSTORE PUSH1 0x2B PUSH1 0x24 DUP3 ADD MSTORE PUSH32 0x4166746572636861696E57696C6C3A2070657263656E7461676573206D757374 PUSH1 0x44 DUP3 ADD MSTORE PUSH11 0x2073756D20746F2031303 PUSH1 0xAC SHL PUSH1 0x64 DUP3 ADD MSTORE PUSH1 0x84 ADD PUSH2 0x2C3 JUMP JUMPDEST POP POP JUMP JUMPDEST PUSH1 0x0 JUMPDEST PUSH1 0x4 SLOAD DUP2 LT ISZERO PUSH2 0xC8D JUMPI PUSH1 0x0 PUSH1 0x64 PUSH1 0x4 DUP4 DUP2 SLOAD DUP2 LT PUSH2 0xCB5 JUMPI PUSH2 0xCB5 PUSH2 0x12BF JUMP JUMPDEST SWAP1 PUSH1 0x0 MSTORE PUSH1 0x20 PUSH1 0x0 KECCAK256 SWAP1 PUSH1 0x3 MUL ADD PUSH1 0x1 ADD SLOAD DUP5 PUSH2 0xCD2 SWAP2 SWAP1 PUSH2 0x12EB JUMP JUMPDEST PUSH2 0xCDC SWAP2 SWAP1 PUSH2 0x1308 JUMP JUMPDEST SWAP1 POP DUP1 ISZERO PUSH2 0xE18 JUMPI PUSH1 0x0 PUSH1 0x4 DUP4 DUP2 SLOAD DUP2 LT PUSH2 0xCF9 JUMPI PUSH2 0xCF9 PUSH2 0x12BF JUMP JUMPDEST PUSH1 0x0 SWAP2 DUP3 MSTORE PUSH1 0x20 DUP3 KECCAK256 PUSH1 0x3 SWAP1 SWAP2 MUL ADD SLOAD PUSH1 0x40 MLOAD PUSH1 0x1 PUSH1 0x1 PUSH1 0xA0 SHL SUB SWAP1 SWAP2 AND SWAP2 DUP5 SWAP2 SWAP1 DUP2 DUP2 DUP2 DUP6 DUP8 GAS CALL SWAP3 POP POP POP RETURNDATASIZE DUP1 PUSH1 0x0 DUP2 EQ PUSH2 0xD52 JUMPI PUSH1 0x40 MLOAD SWAP2 POP PUSH1 0x1F NOT PUSH1 0x3F RETURNDATASIZE ADD AND DUP3 ADD PUSH1 0x40 MSTORE RETURNDATASIZE DUP3 MSTORE RETURNDATASIZE PUSH1 0x0 PUSH1 0x20 DUP5 ADD RETURNDATACOPY PUSH2 0xD57 JUMP JUMPDEST PUSH1 0x60 SWAP2 POP JUMPDEST POP POP SWAP1 POP DUP1 PUSH2 0xDB4 JUMPI PUSH1 0x40 MLOAD PUSH3 0x461BCD PUSH1 0xE5 SHL DUP2 MSTORE PUSH1 0x20 PUSH1 0x4 DUP3 ADD MSTORE PUSH1 0x23 PUSH1 0x24 DUP3 ADD MSTORE PUSH32 0x4166746572636861696E57696C6C3A20455448207472616E7366657220666169 PUSH1 0x44 DUP3 ADD MSTORE PUSH3 0x1B1959 PUSH1 0xEA SHL PUSH1 0x64 DUP3 ADD MSTORE PUSH1 0x84 ADD PUSH2 0x2C3 JUMP JUMPDEST PUSH1 0x4 DUP4 DUP2 SLOAD DUP2 LT PUSH2 0xDC7 JUMPI PUSH2 0xDC7 PUSH2 0x12BF JUMP JUMPDEST PUSH1 0x0 SWAP2 DUP3 MSTORE PUSH1 0x20 SWAP2 DUP3 SWAP1 KECCAK256 PUSH1 0x3 SWAP1 SWAP2 MUL ADD SLOAD PUSH1 0x40 MLOAD DUP5 DUP2 MSTORE PUSH1 0x1 PUSH1 0x1 PUSH1 0xA0 SHL SUB SWAP1 SWAP2 AND SWAP2 PUSH32 0xAB1912CDCFF35BAD007331FB1E883BA5D97FA13D9B605600E7E24913C6D6DBB4 SWAP2 ADD PUSH1 0x40 MLOAD DUP1 SWAP2 SUB SWAP1 LOG2 POP JUMPDEST POP DUP1 PUSH2 0xE23 DUP2 PUSH2 0x132A JUMP JUMPDEST SWAP2 POP POP PUSH2 0xC94 JUMP JUMPDEST PUSH1 0x40 MLOAD PUSH4 0xA9059CBB PUSH1 0xE0 SHL PUSH1 0x0 DUP2 DUP2 MSTORE PUSH1 0x1 PUSH1 0x1 PUSH1 0xA0 SHL SUB DUP7 AND PUSH1 0x4 MSTORE PUSH1 0x24 DUP6 SWAP1 MSTORE SWAP2 PUSH1 0x20 DUP4 PUSH1 0x44 DUP2 DUP1 DUP12 GAS CALL SWAP3 POP PUSH1 0x1 PUSH1 0x0 MLOAD EQ DUP4 AND PUSH2 0xE85 JUMPI DUP4 DUP4 ISZERO AND ISZERO PUSH2 0xE78 JUMPI RETURNDATASIZE PUSH1 0x0 DUP3 RETURNDATACOPY RETURNDATASIZE DUP2 REVERT JUMPDEST PUSH1 0x0 DUP8 EXTCODESIZE GT RETURNDATASIZE ISZERO AND DUP4 AND SWAP3 POP JUMPDEST PUSH1 0x40 MSTORE POP SWAP5 SWAP4 POP POP POP POP JUMP JUMPDEST POP DUP1 SLOAD PUSH1 0x0 DUP3 SSTORE PUSH1 0x3 MUL SWAP1 PUSH1 0x0 MSTORE PUSH1 0x20 PUSH1 0x0 KECCAK256 SWAP1 DUP2 ADD SWAP1 PUSH2 0x98A SWAP2 SWAP1 JUMPDEST DUP1 DUP3 GT ISZERO PUSH2 0xEE3 JUMPI DUP1 SLOAD PUSH1 0x1 PUSH1 0x1 PUSH1 0xA0 SHL SUB NOT AND DUP2 SSTORE PUSH1 0x0 PUSH1 0x1 DUP3 ADD DUP2 SWAP1 SSTORE PUSH2 0xEDA PUSH1 0x2 DUP4 ADD DUP3 PUSH2 0xEE7 JUMP JUMPDEST POP PUSH1 0x3 ADD PUSH2 0xEAE JUMP JUMPDEST POP SWAP1 JUMP JUMPDEST POP DUP1 SLOAD PUSH2 0xEF3 SWAP1 PUSH2 0x1369 JUMP JUMPDEST PUSH1 0x0 DUP3 SSTORE DUP1 PUSH1 0x1F LT PUSH2 0xF03 JUMPI POP POP JUMP JUMPDEST PUSH1 0x1F ADD PUSH1 0x20 SWAP1 DIV SWAP1 PUSH1 0x0 MSTORE PUSH1 0x20 PUSH1 0x0 KECCAK256 SWAP1 DUP2 ADD SWAP1 PUSH2 0x98A SWAP2 SWAP1 JUMPDEST DUP1 DUP3 GT ISZERO PUSH2 0xEE3 JUMPI PUSH1 0x0 DUP2 SSTORE PUSH1 0x1 ADD PUSH2 0xF1D JUMP JUMPDEST DUP1 CALLDATALOAD PUSH1 0x1 PUSH1 0x1 PUSH1 0xA0 SHL SUB DUP2 AND DUP2 EQ PUSH2 0xF48 JUMPI PUSH1 0x0 DUP1 REVERT JUMPDEST SWAP2 SWAP1 POP JUMP JUMPDEST PUSH1 0x0 PUSH1 0x20 DUP3 DUP5 SUB SLT ISZERO PUSH2 0xF5F JUMPI PUSH1 0x0 DUP1 REVERT JUMPDEST PUSH2 0xF68 DUP3 PUSH2 0xF31 JUMP JUMPDEST SWAP4 SWAP3 POP POP POP JUMP JUMPDEST PUSH1 0x0 DUP2 MLOAD DUP1 DUP5 MSTORE PUSH1 0x0 JUMPDEST DUP2 DUP2 LT ISZERO PUSH2 0xF95 JUMPI PUSH1 0x20 DUP2 DUP6 ADD DUP2 ADD MLOAD DUP7 DUP4 ADD DUP3 ADD MSTORE ADD PUSH2 0xF79 JUMP JUMPDEST POP PUSH1 0x0 PUSH1 0x20 DUP3 DUP7 ADD ADD MSTORE PUSH1 0x20 PUSH1 0x1F NOT PUSH1 0x1F DUP4 ADD AND DUP6 ADD ADD SWAP2 POP POP SWAP3 SWAP2 POP POP JUMP JUMPDEST PUSH1 0x0 PUSH1 0x20 DUP1 DUP4 ADD DUP2 DUP5 MSTORE DUP1 DUP6 MLOAD DUP1 DUP4 MSTORE PUSH1 0x40 SWAP3 POP DUP3 DUP7 ADD SWAP2 POP DUP3 DUP2 PUSH1 0x5 SHL DUP8 ADD ADD DUP5 DUP9 ADD PUSH1 0x0 JUMPDEST DUP4 DUP2 LT ISZERO PUSH2 0x102F JUMPI DUP9 DUP4 SUB PUSH1 0x3F NOT ADD DUP6 MSTORE DUP2 MLOAD DUP1 MLOAD PUSH1 0x1 PUSH1 0x1 PUSH1 0xA0 SHL SUB AND DUP5 MSTORE DUP8 DUP2 ADD MLOAD DUP9 DUP6 ADD MSTORE DUP7 ADD MLOAD PUSH1 0x60 DUP8 DUP6 ADD DUP2 SWAP1 MSTORE PUSH2 0x101B DUP2 DUP7 ADD DUP4 PUSH2 0xF6F JUMP JUMPDEST SWAP7 DUP10 ADD SWAP7 SWAP5 POP POP POP SWAP1 DUP7 ADD SWAP1 PUSH1 0x1 ADD PUSH2 0xFDC JUMP JUMPDEST POP SWAP1 SWAP9 SWAP8 POP POP POP POP POP POP POP POP JUMP JUMPDEST PUSH4 0x4E487B71 PUSH1 0xE0 SHL PUSH1 0x0 MSTORE PUSH1 0x41 PUSH1 0x4 MSTORE PUSH1 0x24 PUSH1 0x0 REVERT JUMPDEST PUSH1 0x40 MLOAD PUSH1 0x60 DUP2 ADD PUSH8 0xFFFFFFFFFFFFFFFF DUP2 GT DUP3 DUP3 LT OR ISZERO PUSH2 0x1076 JUMPI PUSH2 0x1076 PUSH2 0x103D JUMP JUMPDEST PUSH1 0x40 MSTORE SWAP1 JUMP JUMPDEST PUSH1 0x40 MLOAD PUSH1 0x1F DUP3 ADD PUSH1 0x1F NOT AND DUP2 ADD PUSH8 0xFFFFFFFFFFFFFFFF DUP2 GT DUP3 DUP3 LT OR ISZERO PUSH2 0x10A5 JUMPI PUSH2 0x10A5 PUSH2 0x103D JUMP JUMPDEST PUSH1 0x40 MSTORE SWAP2 SWAP1 POP JUMP JUMPDEST PUSH1 0x0 PUSH1 0x20 DUP1 DUP4 DUP6 SUB SLT ISZERO PUSH2 0x10C0 JUMPI PUSH1 0x0 DUP1 REVERT JUMPDEST DUP3 CALLDATALOAD PUSH8 0xFFFFFFFFFFFFFFFF DUP1 DUP3 GT ISZERO PUSH2 0x10D8 JUMPI PUSH1 0x0 DUP1 REVERT JUMPDEST DUP2 DUP6 ADD SWAP2 POP DUP6 PUSH1 0x1F DUP4 ADD SLT PUSH2 0x10EC JUMPI PUSH1 0x0 DUP1 REVERT JUMPDEST DUP2 CALLDATALOAD DUP2 DUP2 GT ISZERO PUSH2 0x10FE JUMPI PUSH2 0x10FE PUSH2 0x103D JUMP JUMPDEST DUP1 PUSH1 0x5 SHL PUSH2 0x110D DUP6 DUP3 ADD PUSH2 0x107C JUMP JUMPDEST SWAP2 DUP3 MSTORE DUP4 DUP2 ADD DUP6 ADD SWAP2 DUP6 DUP2 ADD SWAP1 DUP10 DUP5 GT ISZERO PUSH2 0x1127 JUMPI PUSH1 0x0 DUP1 REVERT JUMPDEST DUP7 DUP7 ADD SWAP3 POP JUMPDEST DUP4 DUP4 LT ISZERO PUSH2 0x120B JUMPI DUP3 CALLDATALOAD DUP6 DUP2 GT ISZERO PUSH2 0x1145 JUMPI PUSH1 0x0 DUP1 DUP2 REVERT JUMPDEST DUP7 ADD PUSH1 0x60 PUSH1 0x1F NOT DUP3 DUP14 SUB DUP2 ADD DUP3 SGT ISZERO PUSH2 0x115E JUMPI PUSH1 0x0 DUP1 DUP2 REVERT JUMPDEST PUSH2 0x1166 PUSH2 0x1053 JUMP JUMPDEST PUSH2 0x1171 DUP12 DUP6 ADD PUSH2 0xF31 JUMP JUMPDEST DUP2 MSTORE PUSH1 0x40 DUP5 DUP2 ADD CALLDATALOAD DUP13 DUP4 ADD MSTORE SWAP3 DUP5 ADD CALLDATALOAD SWAP3 DUP10 DUP5 GT ISZERO PUSH2 0x1190 JUMPI PUSH1 0x0 DUP1 DUP2 REVERT JUMPDEST DUP4 DUP6 ADD SWAP5 POP DUP15 PUSH1 0x3F DUP7 ADD SLT PUSH2 0x11A7 JUMPI PUSH1 0x0 SWAP4 POP DUP4 DUP5 REVERT JUMPDEST DUP12 DUP6 ADD CALLDATALOAD SWAP4 POP DUP10 DUP5 GT ISZERO PUSH2 0x11BD JUMPI PUSH2 0x11BD PUSH2 0x103D JUMP JUMPDEST PUSH2 0x11CD DUP13 DUP5 PUSH1 0x1F DUP8 ADD AND ADD PUSH2 0x107C JUMP JUMPDEST SWAP3 POP DUP4 DUP4 MSTORE DUP15 DUP2 DUP6 DUP8 ADD ADD GT ISZERO PUSH2 0x11E4 JUMPI PUSH1 0x0 DUP1 DUP2 REVERT JUMPDEST DUP4 DUP2 DUP7 ADD DUP14 DUP6 ADD CALLDATACOPY PUSH1 0x0 SWAP4 DUP4 ADD DUP13 ADD SWAP4 SWAP1 SWAP4 MSTORE SWAP2 DUP3 ADD MSTORE DUP4 MSTORE POP SWAP2 DUP7 ADD SWAP2 SWAP1 DUP7 ADD SWAP1 PUSH2 0x112D JUMP JUMPDEST SWAP10 SWAP9 POP POP POP POP POP POP POP POP POP JUMP JUMPDEST PUSH1 0x0 PUSH1 0x20 DUP3 DUP5 SUB SLT ISZERO PUSH2 0x122A JUMPI PUSH1 0x0 DUP1 REVERT JUMPDEST POP CALLDATALOAD SWAP2 SWAP1 POP JUMP JUMPDEST PUSH1 0x1 DUP1 PUSH1 0xA0 SHL SUB DUP5 AND DUP2 MSTORE DUP3 PUSH1 0x20 DUP3 ADD MSTORE PUSH1 0x60 PUSH1 0x40 DUP3 ADD MSTORE PUSH1 0x0 PUSH2 0x1258 PUSH1 0x60 DUP4 ADD DUP5 PUSH2 0xF6F JUMP JUMPDEST SWAP6 SWAP5 POP POP POP POP POP JUMP JUMPDEST PUSH1 0x20 DUP1 DUP3 MSTORE PUSH1 0x25 SWAP1 DUP3 ADD MSTORE PUSH32 0x4166746572636861696E57696C6C3A2077696C6C20616C726561647920657865 PUSH1 0x40 DUP3 ADD MSTORE PUSH5 0x18DD5D1959 PUSH1 0xDA SHL PUSH1 0x60 DUP3 ADD MSTORE PUSH1 0x80 ADD SWAP1 JUMP JUMPDEST PUSH1 0x0 PUSH1 0x20 DUP3 DUP5 SUB SLT ISZERO PUSH2 0x12B8 JUMPI PUSH1 0x0 DUP1 REVERT JUMPDEST POP MLOAD SWAP2 SWAP1 POP JUMP JUMPDEST PUSH4 0x4E487B71 PUSH1 0xE0 SHL PUSH1 0x0 MSTORE PUSH1 0x32 PUSH1 0x4 MSTORE PUSH1 0x24 PUSH1 0x0 REVERT JUMPDEST PUSH4 0x4E487B71 PUSH1 0xE0 SHL PUSH1 0x0 MSTORE PUSH1 0x11 PUSH1 0x4 MSTORE PUSH1 0x24 PUSH1 0x0 REVERT JUMPDEST DUP1 DUP3 MUL DUP2 ISZERO DUP3 DUP3 DIV DUP5 EQ OR PUSH2 0x1302 JUMPI PUSH2 0x1302 PUSH2 0x12D5 JUMP JUMPDEST SWAP3 SWAP2 POP POP JUMP JUMPDEST PUSH1 0x0 DUP3 PUSH2 0x1325 JUMPI PUSH4 0x4E487B71 PUSH1 0xE0 SHL PUSH1 0x0 MSTORE PUSH1 0x12 PUSH1 0x4 MSTORE PUSH1 0x24 PUSH1 0x0 REVERT JUMPDEST POP DIV SWAP1 JUMP JUMPDEST PUSH1 0x0 PUSH1 0x1 DUP3 ADD PUSH2 0x133C JUMPI PUSH2 0x133C PUSH2 0x12D5 JUMP JUMPDEST POP PUSH1 0x1 ADD SWAP1 JUMP JUMPDEST DUP1 DUP3 ADD DUP1 DUP3 GT ISZERO PUSH2 0x1302 JUMPI PUSH2 0x1302 PUSH2 0x12D5 JUMP JUMPDEST DUP2 DUP2 SUB DUP2 DUP2 GT ISZERO PUSH2 0x1302 JUMPI PUSH2 0x1302 PUSH2 0x12D5 JUMP JUMPDEST PUSH1 0x1 DUP2 DUP2 SHR SWAP1 DUP3 AND DUP1 PUSH2 0x137D JUMPI PUSH1 0x7F DUP3 AND SWAP2 POP JUMPDEST PUSH1 0x20 DUP3 LT DUP2 SUB PUSH2 0x139D JUMPI PUSH4 0x4E487B71 PUSH1 0xE0 SHL PUSH1 0x0 MSTORE PUSH1 0x22 PUSH1 0x4 MSTORE PUSH1 0x24 PUSH1 0x0 REVERT JUMPDEST POP SWAP2 SWAP1 POP JUMP JUMPDEST PUSH1 0x1F DUP3 GT ISZERO PUSH2 0xA8B JUMPI PUSH1 0x0 DUP2 DUP2 MSTORE PUSH1 0x20 DUP2 KECCAK256 PUSH1 0x1F DUP6 ADD PUSH1 0x5 SHR DUP2 ADD PUSH1 0x20 DUP7 LT ISZERO PUSH2 0x13CA JUMPI POP DUP1 JUMPDEST PUSH1 0x1F DUP6 ADD PUSH1 0x5 SHR DUP3 ADD SWAP2 POP JUMPDEST DUP2 DUP2 LT ISZERO PUSH2 0x13E9 JUMPI DUP3 DUP2 SSTORE PUSH1 0x1 ADD PUSH2 0x13D6 JUMP JUMPDEST POP POP POP POP POP POP JUMP JUMPDEST DUP2 MLOAD PUSH8 0xFFFFFFFFFFFFFFFF DUP2 GT ISZERO PUSH2 0x140B JUMPI PUSH2 0x140B PUSH2 0x103D JUMP JUMPDEST PUSH2 0x141F DUP2 PUSH2 0x1419 DUP5 SLOAD PUSH2 0x1369 JUMP JUMPDEST DUP5 PUSH2 0x13A3 JUMP JUMPDEST PUSH1 0x20 DUP1 PUSH1 0x1F DUP4 GT PUSH1 0x1 DUP2 EQ PUSH2 0x1454 JUMPI PUSH1 0x0 DUP5 ISZERO PUSH2 0x143C JUMPI POP DUP6 DUP4 ADD MLOAD JUMPDEST PUSH1 0x0 NOT PUSH1 0x3 DUP7 SWAP1 SHL SHR NOT AND PUSH1 0x1 DUP6 SWAP1 SHL OR DUP6 SSTORE PUSH2 0x13E9 JUMP JUMPDEST PUSH1 0x0 DUP6 DUP2 MSTORE PUSH1 0x20 DUP2 KECCAK256 PUSH1 0x1F NOT DUP7 AND SWAP2 JUMPDEST DUP3 DUP2 LT ISZERO PUSH2 0x1483 JUMPI DUP9 DUP7 ADD MLOAD DUP3 SSTORE SWAP5 DUP5 ADD SWAP5 PUSH1 0x1 SWAP1 SWAP2 ADD SWAP1 DUP5 ADD PUSH2 0x1464 JUMP JUMPDEST POP DUP6 DUP3 LT ISZERO PUSH2 0x14A1 JUMPI DUP8 DUP6 ADD MLOAD PUSH1 0x0 NOT PUSH1 0x3 DUP9 SWAP1 SHL PUSH1 0xF8 AND SHR NOT AND DUP2 SSTORE JUMPDEST POP POP POP POP POP PUSH1 0x1 SWAP1 DUP2 SHL ADD SWAP1 SSTORE POP JUMP INVALID LOG2 PUSH5 0x6970667358 0x22 SLT KECCAK256 SAR 0xEC 0xCC OR 0xE2 SUB MOD 0xC4 0xE4 0x25 0xC9 0xDA LOG4 0x2F 0x4D LOG3 0x1E 0x1F 0xE2 PUSH2 0x6368 DUP2 0x24 PUSH18 0xE676A53024A36364736F6C63430008140033 "},"methodIdentifiers":{"beneficiaries(uint256)":"efeb5e58","executeWill()":"a5b83635","executeWillTokens(address)":"6caf7210","executed()":"31a38c89","getBeneficiaries()":"913b722c","getWillStatus()":"8fc4c35e","heartbeat()":"3defb962","heartbeatInterval()":"561a4fac","lastHeartbeat()":"69c1a712","owner()":"8da5cb5b","updateWill((address,uint256,string)[])":"a495aaff"}}}}}